:1000000000308A00D02800008E30F7003008F80059
:100010002F08F900FA01F808031D18287908F800DC
:10002000F9010830F702F808031D1828F701202805
:100030000310F81B1F28F90DF80DF7031828F81303
:100040008A110A1216292F0803199328B7003308BA
:1000500003199328B707031834287F30B702031C0D
:1000600093280319932838288130B7070318932859
:100070003708F700F801F901FA013008BB00BB1797
:100080003108BA003208B9001830B700B801391C7D
:1000900061283608FA07031C5328F90A031D532860
:1000A000F80A0319B8173508F907031C5A28F80A83
:1000B0000319B8173408B100B1173108F80703184D
:1000C000B817B80DF80CF90CFA0CBB0CBA0CB90C3B
:1000D0000310B70B46280130F70703189328F81BC5
:1000E0007828BB0DFA0DF90DF80DF70303199328C5
:1000F000BB1F8928FA0A031D8928F90A031D8928CC
:10010000F80A031D8928F80CF90CFA0CF70A0319F0
:1001100093283008B8003408B806B81F9128F8179B
:100120009728F8139728F701F801F901FA018A11C5
:100130000A1227298E30F7002F08F7023008F9003D
:100140003108F800F917F7080319B1280310F90866
:10015000031DAD28F8080319B128F90CF80CF70BAA
:10016000A628B01FB828F809F909F80A0319F90AEE
:100170008A110A1230293108F80130020318C32805
:100180003008F700CF28F7010830B200B00DF70DA6
:10019000310877020318F700F80DB20BC6280800E3
:1001A00003081F398300FF30AC0083161F149F140F
:1001B0001F159F1107309C008313C0308312A000CD
:1001C000F930A100A430A200B030A3009930A400FF
:1001D0009230A5008230A600F830A7008030A80039
:1001E0009030A900BF30AA00C030AB0083161F10AA
:1001F0009F141F159F150030F80083121F08C73980
:1002000078049F0083161F1383121F179F178316EE
:100210009F1783121F141F151F190C2983161E0800
:100220008312AE00B0012E08AF0004287A08B20095
:100230007908B1007808B0007708AF003530B60013
:100240005E30B5007A30B4007D30B30023287A08E0
:10025000B2007908B1007808B0007708AF009A289A
:100260007808AD002D08633C031C5E2983168601C7
:100270008312200886002D08B0000A30B100BB2090
:1002800020307807840083130008AF000030AC00F2
:100290008316870183122F0887002D08B0000A30CB
:1002A000B100BB2020307707840083130008AF0023
:1002B0008316880183122F08880099292D08633C32
:1002C000031899292D08B0006430B100BB202030FC
:1002D0007807840083130008AF0083168601831219
:1002E0002F0886002D08B0000A30B100BB20780826
:1002F000B0000A30B100BB202030770784008313A0
:100300000008AF000030AC008316870183122F086D
:1003100087002D08B0000A30B100BB2020307707DD
:10032000840083130008AF008316880183122F080E
:0603300088000B296300A8
:02400E00713F00
:00000001FF
;PIC16F877A
;CRC=D30F  CREATED="24-Nov-23 11:30"
